:0200000480007A
:10000000370100801301010BE7000100130000001D
:1000100000000000000000000000000000000000E0
:10002000232E11FE232C51FE232A61FE232871FE6C
:100030002326A1FE2324B1FE2322C1FE2320D1FECC
:10004000232EE1FC232CF1FC232A01FD232811FDA2
:100050002326C1FD2324D1FD2322E1FD2320F1FD30
:10006000130101FCEF0000398320C10383228103C7
:1000700003234103832301030325C1028325810256
:1000800003264102832601020327C1018327810140
:100090000328410183280101032EC100832E810022
:1000A000032F4100832F010013010104730020304E
:1000B000972100009381014713810101172500005A
:1000C000130545C697250000938505C66308B5004E
:1000D00023200500130545006FF05FFF1725000082
:1000E000130545C01301C1FF97250000938585BF07
:1000F000630EB50083260500130545002320A100EB
:10010000E7800600032501006FF01FFE1301410088
:1001100037050080130505027310553037150000B0
:1001200013050588731045303725000013058580B9
:1001300073100530EF00003D6F000000000000006C
:1001400000000000000000000000000000000000AF
:080150000000000000000000A7
:10015800130101FE232E8100130401022326A4FEAD
:100168008327C4FE83A7470093F70702B337F0003D
:1001780093F7F70F138507000324C1011301010248
:1001880067800000130101FE232E1100232C81003B
:10019800130401022326A4FE93870500A305F4FE99
:1001A800130000000325C4FEEFF09FFA9307050033
:1001B800E38A07FE0347B4FE8327C4FE23A0E700B3
:1001C800130000008320C1010324810113010102EF
:1001D80067800000130101FD232681021304010337
:1001E800232EA4FC232CB4FC232604FE832784FDA1
:1001F80003A78702B74700009387F7FF3377F70015
:10020800832784FD83A747029396E700B707010079
:100218009387F7FFB3F7F6003367F700832784FD6A
:1002280083A7070293960701B7070300B3F7F60001
:100238003367F700832784FD83A7C70193962701B7
:10024800B7070400B3F7F6003367F700832784FD88
:1002580083A7870193963701B7070800B3F7F6001D
:100268003367F700832784FD83A7470193968701A7
:10027800B7070001B3F7F6003367F700832784FD5B
:1002880083A7070193969701B7070002B3F7F60013
:100298003367F700832784FD83A7C7009396A701D8
:1002A800B7070004B3F7F6003367F700832784FD28
:1002B80083A787009396B701B7070008B3F7F6003E
:1002C8003367F700832784FD83A747009396C70108
:1002D800B7070010B3F7F6003367F700832784FDEC
:1002E80083A707009397F701B367F7002326F4FE67
:1002F8008327C4FD0327C4FE23A4E70013000000DE
:100308000324C1021301010367800000130101FEE9
:10031800232E1100232C8100130401022326A4FE9E
:100328002324B4FE6F0040028327C4FE83C707005E
:1003380093850700032584FEEFF0DFE48327C4FEDE
:10034800938717002326F4FE8327C4FE83C707007C
:10035800E39C07FC130000008320C10103248101F2
:100368001301010267800000130101FE232E8100A2
:10037800130401022326A4FEB72700109387470021
:100388000327C4FE23A0E700130000000324C101D3
:100398001301010267800000130101FF2326810079
:1003A80013040101B72700109387470083A70700AC
:1003B800138507000324C1001301010167800000B1
:1003C800130101FE232E8100130401022326A4FE3B
:1003D800B72700100327C4FE23A0E700130000007E
:1003E8000324C1011301010267800000130101FE0B
:1003F800232E1100232C810013040102F32720343B
:100408002326F4FE0327C4FEB7070080938737002E
:100418006316F700EF0040246F0080030327C4FE33
:10042800B7070080938777006316F700EF00801FF7
:100438006F0000020327C4FEB70700809387B70048
:100448006316F700EF0000236F008000EF00002B19
:10045800130000008320C10103248101130101025C
:1004680067800000130101FE232E8100130401029E
:100478002326A4FEB74700100327C4FE23A0E700E5
:10048800130000000324C10113010102678000006A
:10049800130101FF2326810013040101B7C70010CF
:1004A800938787FF23A00700130000000324C100DF
:1004B8001301010167800000130101FD2326810259
:1004C80013040103232EA4FC232604FE6F0040011D
:1004D800330000008327C4FE938717002326F4FE09
:1004E8000327C4FE8327C4FDE344F7FE130000007E
:1004F8000324C1021301010367800000130101FEF8
:10050800232E1100232C810013040102232604FE4C
:10051800B70700F037070C021307F72523A4E700F5
:10052800B72700801385C7ABEF004068B727008066
:10053800138507B0EF008067B7270080138547B49D
:10054800EF00C066B7270080138587B8EF00006604
:10055800B72700801385C7BCEF004065B727008028
:10056800138507C1EF008064B7270080138507CE85
:10057800EF00C063B72700801385C7ABEF000063A7
:10058800B7272C84138507D8EFF0DFED130540005B
:10059800EFF01FE31305F00FEFF01FDDB70700F0D2
:1005A80093870710370701001307F7FF23A4E70015
:1005B800B70700F0938707101307F0FF23A6E7009B
:1005C800B70711F0938747003707FFFF23A0E7001D
:1005D800B70711F09387470083A7070093850700A3
:1005E800B7270080138547C5EF00405CB70700F0C8
:1005F800938707100327C4FE23A2E7008327C4FEBE
:10060800938717002326F4FEB7574C00138507B4C9
:10061800EFF09FEAB72700801385C7C6EF0000599F
:100628006FF0DFFC130101FF232611002324810052
:1006380013040101B72700801385C7C7EF000057CF
:10064800EFF01FE5130000008320C10003248100A0
:100658001301010167800000130101FF23268100B7
:1006680013040101130000000324C1001301010158
:1006780067800000130101FE232E1100232C810046
:1006880013040102EFF05FD12326A4FE0327C4FE62
:10069800930740006316F700EF00C0026F00800167
:1006A8008325C4FEB72700801385C7C8EF00005014
:1006B8006F0000008320C10103248101130101029E
:1006C80067800000130101FF232611002324810005
:1006D80013040101B7270080138587CAEF00004D76
:1006E80013054000EFF05FC8130000008320C1002D
:1006F800032481001301010167800000130101FE3A
:10070800232E1100232C8100130401022326A4FEAA
:100718008325C4FEB7270080138587CBEF000049E7
:100728006F000000130101FE232E81001304010253
:100738002326A4FE8327C4FE83A7470093F7070256
:10074800B337F00093F7F70F138507000324C101AF
:100758001301010267800000130101FE232E11001E
:10076800232C8100130401022326A4FE938705008D
:10077800A305F4FE130000000325C4FEEFF09FFA62
:1007880093070500E38A07FE0347B4FE8327C4FEE8
:1007980023A0E700130000008320C1010324810186
:1007A8001301010267800000130101FD2326810265
:1007B80013040103232EA4FC232CB4FC232604FEDB
:1007C800832784FD03A78702B74700009387F7FFB5
:1007D8003377F700832784FD83A747029396E700C2
:1007E800B70701009387F7FFB3F7F6003367F70001
:1007F800832784FD83A7070293960701B7070300A1
:10080800B3F7F6003367F700832784FD83A7C70192
:1008180093962701B7070400B3F7F6003367F7008C
:10082800832784FD83A7870193963701B7070800BC
:10083800B3F7F6003367F700832784FD83A74701E2
:1008480093968701B7070001B3F7F6003367F700FF
:10085800832784FD83A7070193969701B7070002B2
:10086800B3F7F6003367F700832784FD83A7C70033
:100878009396A701B7070004B3F7F6003367F700AC
:10088800832784FD83A787009396B701B7070008DD
:10089800B3F7F6003367F700832784FD83A7470083
:1008A8009396C701B7070010B3F7F6003367F70050
:1008B800832784FD83A707009397F701B367F700A1
:1008C8002326F4FE8327C4FD0327C4FE23A4E700E0
:1008D800130000000324C102130101036780000014
:1008E800130101FE232E1100232C810013040102A1
:1008F8002326A4FE2324B4FE6F0040028327C4FEEF
:1009080083C7070093850700032584FEEFF0DFE423
:100918008327C4FE938717002326F4FE8327C4FE8B
:1009280083C70700E39C07FC130000008320C10174
:10093800032481011301010267800000130101FEF5
:10094800232E1100232C81001304010293070500B4
:10095800A307F4FE8347F4FE93850700370500F0EC
:10096800EFF09FDF130000008320C1010324810101
:100978001301010267800000130101FE232E1100FC
:10098800232C8100130401022326A4FE8327C4FE1E
:1009980093F7F70F13850700EFF05FFA13000000D5
:1009A8008320C10103248101130101026780000033
:1009B800130101FE232E1100232C810013040102D0
:1009C8002326A4FE6F00C0018327C4FE13871700E7
:1009D8002326E4FE83C7070013850700EFF01FF600
:1009E8008327C4FE83C70700E39007FE13000000B7
:1009F8008320C101032481011301010267800000E3
:100A0800130101FB23261104232481041304010587
:100A1800232EA4FA9307C4FC2326F4FE8327C4FBE1
:100A280063D207061305D002EFF01FF58327C4FB36
:100A3800B307F040232EF4FA6F00C0048327C4FBE9
:100A48009305A00013850700EF10C0039307050066
:100A580013F7F70F8327C4FE938617002326D4FEC7
:100A6800130707031377F70F2380E7008327C4FBD7
:100A78009305A00013850700EF0090789307050001
:100A8800232EF4FA8327C4FBE39A07FA9307C4FCDE
:100A98000327C4FEE304F7FA6F0000028327C4FEAD
:100AA8009387F7FF2326F4FE8327C4FE83C7070036
:100AB80013850700EFF05FEC9307C4FC0327C4FE1F
:100AC800E31EF7FC130000008320C1040324810403
:100AD8001301010567800000130101FA232E110498
:100AE800232C8104130401062326A4FAB7270080C7
:100AF80003A607CD138707CD83264700138707CDA5
:100B080003278700938707CD83A7C700232EC4FA3E
:100B18002320D4FC2322E4FC2324F4FC9307C4FC04
:100B28002326F4FE6F0040038327C4FA13F7F70067
:100B38008327C4FE938617002326D4FE930604FF5A
:100B48003387E6000347C7FC2380E7008327C4FAFE
:100B580093D747002326F4FA8327C4FAE39607FCC1
:100B68009307C4FC0327C4FEE300F7FC6F000002F0
:100B78008327C4FE9387F7FF2326F4FE8327C4FE4A
:100B880083C7070013850700EFF01FDF9307C4FC36
:100B98000327C4FEE31EF7FC130000008320C105F1
:100BA800032481051301010667800000130101FB7E
:100BB800232611022324810213040103232EA4FCFB
:100BC8002322B4002324C4002326D4002328E400CD
:100BD800232AF400232C0401232E14019307040272
:100BE800938747FE2324F4FE232604FE6F00801318
:100BF8008327C4FE0327C4FDB307F70003C7070014
:100C080093075002631EF70E6F00400D8327C4FE42
:100C18000327C4FDB307F70003C70700930730068F
:100C28006310F702832784FE138747002324E4FE1A
:100C380083A7070013850700EFF01FD46F00C00DCE
:100C48008327C4FE0327C4FDB307F70003C70700C3
:100C5800930730076310F702832784FE1387470042
:100C68002324E4FE83A7070013850700EFF05FD471
:100C78006F00800A8327C4FE0327C4FDB307F7006B
:100C880003C70700930740066310F702832784FE13
:100C9800138747002324E4FE83A707001385070072
:100CA800EFF01FD66F0040078327C4FE0327C4FD5B
:100CB800B307F70003C70700930780076310F7021D
:100CC800832784FE138747002324E4FE83A70700B5
:100CD80013850700EFF05FE06F0000048327C4FE70
:100CE800938717002326F4FE8327C4FE0327C4FD39
:100CF800B307F70083C70700E39A07F06F00C00146
:100D08008327C4FE0327C4FDB307F70083C7070082
:100D180013850700EFF05FC68327C4FE938717008B
:100D28002326F4FE8327C4FE0327C4FDB307F70078
:100D380083C70700E39E07EA130000001385070036
:100D48008320C1020324810213010105678000008A
:100D5800130101FE232E1100232C8100130401022C
:100D68002326A4FE6F0000028327C4FE83C7070062
:100D780013850700EFF09FBC8327C4FE93871700F5
:100D88002326F4FE8327C4FE83C70700E39E07FCDF
:100D98001305A000EFF09FBA930700001385070022
:100DA8008320C1010324810113010102678000002F
:100DB800130101FE232E8100130401022326A4FE41
:100DC8002324B4FE8327C4FE032784FE23A0E70060
:100DD800130000000324C101130101026780000011
:100DE800130101FE232E8100130401022326A4FE11
:100DF8002324B4FE130000008327C4FE83A78700C2
:100E08008327C4FE032784FE23A6E70013000000FF
:100E18000324C1011301010267800000130101FED0
:100E2800232E8100130401022326A4FE8327C4FE77
:100E380083A7C700138507000324C101130101021A
:100E480067800000130101FE232E810013040102B4
:100E58002326A4FE93870500A305F4FE13000000D3
:100E68008327C4FE83A7870093F72700E38A07FE3A
:100E78000347B4FE8327C4FE23A2E7001300000043
:100E88000324C1011301010267800000130101FD61
:100E9800232611022324810213040103232EA4FC18
:100EA800232CB4FC232AC4FC232604FE6F00C002B2
:100EB800032784FD8327C4FEB307F70083C7070011
:100EC800938507000325C4FDEFF0DFF78327C4FEF1
:100ED800938717002326F4FE0327C4FE832744FDC7
:100EE800E368F7FC130000008320C1020324810299
:100EF8001301010367800000130101FE232E810006
:100F0800130401022326A4FE130000008327C4FE55
:100F180083A7870093F71700E38A07FE8327C4FE99
:100F280083A7470093F7F70F138507000324C10130
:100F38001301010267800000130101FE232E110036
:100F4800232C81001304010293070500A307F4FE74
:100F58008347F4FE93850700B70700F01385072041
:100F6800EFF05FEE130000008320C101032481012C
:100F78001301010267800000130101FF23261100FD
:100F880023248100130401019305F00FB70700F033
:100F980013850720EFF01FEBB70700F01385072034
:100FA800EFF09FF593070500138507008320C10024
:100FB800032481001301010167800000130101FE71
:100FC800232E1100232C810013040102232604FE82
:100FD800A30504FEB70700F013850720EFF01FE410
:100FE8009307050093F7E7FF93850700B70700F01D
:100FF80013850720EFF0DFDEEFF01FF893070500F9
:10100800138707009307F00F6318F7009307100082
:10101800A305F4FE6F0000028327C4FE9387170020
:101028002326F4FE0327C4FEB70700019387E7FFD2
:10103800E3F4E7FCB70700F013850720EFF01FDEA5
:101048009307050093E7170093850700B70700F09B
:1010580013850720EFF0DFD88347B4FE1385070018
:101068008320C1010324810113010102678000006C
:10107800130101FE232E1100232C81001304010209
:10108800B70700F013850720EFF05FD99307050035
:1010980093E7170093850700B70700F0138507202B
:1010A800EFF01FD49307F00F2326F4FE130500007A
:1010B800EFF09FE8130000008320C10103248101A1
:1010C8001301010267800000130101FD23261102AC
:1010D800232481021304010393070500232CB4FC85
:1010E80013870600A30FF4FC93070600230FF4FCF4
:1010F80093070700A30EF4FCB70700F01385072039
:10110800EFF0DFD19307050093F7E7FF938507001A
:10111800B70700F013850720EFF09FCC8347F4FD55
:1011280093E7070493F7F70F13850700EFF0DFE065
:10113800832784FD93D7870193F7F70F138507005B
:10114800EFF09FDF832784FD93D7070193F7F70F0D
:1011580013850700EFF05FDE832784FD93D78700B0
:1011680093F7F70F13850700EFF01FDD832784FD42
:1011780093F7F70F13850700EFF01FDC8347E4FDB3
:1011880013850700EFF05FDBA30704FEEFF0DFDE57
:10119800930705002307F4FE8347F4FE938717009F
:1011A800A307F4FE0347F4FE9307800C63EAE70005
:1011B8000347E4FE9307F00FE30AF7FC6F00800093
:1011C800130000008347E4FE138507008320C10253
:1011D800032481021301010367800000130101FC4D
:1011E800232E1102232C810213040104B70700F0F7
:1011F80013850720EFF09FC29307050093E71700B8
:1012080093850700B70700F013850720EFF05FBD4F
:10121800231604FE6F0000029305F00FB70700F0D5
:1012280013850720EFF01FC28357C4FE938717006A
:101238002316F4FE0357C4FE93078000E3FEE7FC81
:10124800B70700F013850720EFF05FBD930705008F
:1012580093E7170093850700B70700F01385072069
:10126800EFF01FB8231604FE93061000130650096A
:101278009305000013050000EFF01FE59307050034
:101288002317F4FE8357C4FE938717002316F4FE32
:101298000357E4FE930710006308F7000357C4FEE2
:1012A8009307700CE3F2E7FC0357E4FE9307800C06
:1012B8006316F700930710006F00C039B70700F0F6
:1012C80013850720EFF09FB59307050093F7E7FF15
:1012D80093850700B70700F013850720EFF05FB08C
:1012E80093060000130670089305A01A13058000E2
:1012F800EFF09FDD930705002317F4FE0357E4FE84
:10130800930750006312F718B727008013072000CF
:101318002380E7D2B70700F013850720EFF01FB04E
:101328009307050093E7170093850700B70700F0B8
:1013380013850720EFF0DFAA1305F00FEFF0DFBFEA
:10134800231604FE93061000130600009305000000
:1013580013057003EFF05FD7930705002317F4FE1A
:101368000357E4FE9307F00F6318F7008357E4FE72
:1013780093F7F70F6F00002E930610001306000076
:101388009305000013059002EFF01FD493070500A2
:101398002317F4FE8357C4FE938717002316F4FE21
:1013A8008357E4FE638807000357C4FE9307F018C9
:1013B800E3FAE7F80357C4FE930700196312F70628
:1013C800231604FE93061000130600009305000080
:1013D80013051000EFF05FCF930705002317F4FE05
:1013E8008357C4FE938717002316F4FE8357E4FE41
:1013F800638807000357C4FE9307F018E3F4E7FC7B
:101408000357C4FE930700196316F70093071000EB
:101418006F004024B7270080130710002380E7D20D
:101428001305F00FEFF05FB1930610001306500993
:10143800930500001305B003EFF01FC993070500DB
:101448002317F4FE8357E4FE638807008357E4FEFE
:1014580093F7F70F6F00002093061000130650094A
:101468009305002013050001EFF01FC69307050040
:101478002317F4FE8357E4FE638A071C8357E4FEB0
:1014880093F7F70F6F00001D0357E4FE9307100052
:10149800631EF71A1305F00FEFF01FAA1305F00FDC
:1014A800EFF09FA91305F00FEFF01FA91305F00F38
:1014B800EFF09FA8B70700F013850720EFF01F96FD
:1014C8009307050093E7170093850700B70700F017
:1014D80013850720EFF0DF901305F00FEFF0DFA57D
:1014E800231604FE9306100013060000930500005F
:1014F80013057003EFF05FBD930705002317F4FE93
:101508000357E4FE930710006308F7008357E4FECF
:1015180093F7F70F6F0000149306100013060000EE
:10152800B705004013059002EFF01FBA93070500B6
:101538002317F4FE0357C4FE9307800C63F8E700F3
:101548008357E4FE93F7F70F6F00C0108357E4FE4C
:10155800E39A07F8930600001306000093050000BD
:101568001305A003EFF05FB6930705002317F4FEF9
:101578008357E4FE638A0702B70700F01385072044
:10158800EFF0DF899307050093E7170093850700BD
:10159800B70700F013850720EFF09F848357E4FE18
:1015A80093F7F70F6F00000B1305F00FEFF0DF98BC
:1015B800EFF09F9C930705002304F4FE1305F00F3A
:1015C800EFF09F97EFF05F9B93070500A304F4FEED
:1015D8001305F00FEFF05F96EFF01F9A93070500E1
:1015E8002305F4FE1305F00FEFF01F95EFF0DF98D9
:1015F80093070500A305F4FEB70700F0138507203D
:10160800EFF0DF819307050093E717009385070044
:10161800B70700F013850720EFF08FFC1305F00FD4
:10162800EFF09F91834784FE93F70704638A0700CE
:10163800B7270080130760002380E7D26F000001FE
:10164800B7270080130740002380E7D28357E4FEC2
:1016580093F7F70F138507008320C1030324810341
:101668001301010467800000130101FD2326110204
:10167800232481021304010393070500A30FF4FC3C
:10168800A30604FEB7170000938787382317F4FED4
:101698006F008002EFF05F8E93070500A306F4FE4B
:1016A8000347D4FE8347F4FD630EF7008357E4FE37
:1016B8009387F7FF2317F4FE8357E4FEE39C07FCA8
:1016C8006F008000130000008357E4FE6396070054
:1016D800930710006F008000930700001385070030
:1016E8008320C102032481021301010367800000E3
:1016F800130101FD2326110223248102130401038F
:10170800232EA4FC93870500231DF4FCB70700F0E3
:1017180013850720EFF08FF09307050093F7E7FF95
:1017280093850700B70700F013850720EFF04FEB0C
:101738001305E00FEFF05FF39307050063880702D6
:10174800B70700F013850720EFF04FED930705006A
:1017580093E7170093850700B70700F01385072064
:10176800EFF00FE8930710006F004007231704FEFF
:101778006F000003EFF05F809307050013870700F1
:101788008327C4FD2380E7008327C4FD93871700C0
:10179800232EF4FC8357E4FE938717002317F4FEE7
:1017A8000357E4FE8357A4FDE366F7FCEFF0CFFC94
:1017B800EFF08FFCB70700F013850720EFF00FE676
:1017C8009307050093E7170093850700B70700F014
:1017D80013850720EFF0CFE093070000138507007B
:1017E8008320C102032481021301010367800000E2
:1017F800130101FD2326110223248102130401038E
:10180800232EA4FC232CB4FCB727008003C707D2DF
:10181800930760006308F700832784FD9397970078
:10182800232CF4FCB70700F013850720EFF00FDF37
:101838009307050093F7E7FF93850700B70700F0C4
:1018480013850720EFF0CFD9930610001306100078
:10185800832584FD13051001EFF01F87930705000A
:10186800A307F4FE8347F4FE639C0700930500205A
:101878000325C4FDEFF0DFE793070500A307F4FE97
:10188800EFF00FFF8347F4FE138507008320C102A2
:10189800032481021301010367800000130101FD85
:1018A800232611022324810213040103232EA4FCFE
:1018B80093870500A30DF4FC8347B4FD1385070047
:1018C800EFF08FE70347B4FD9307D00F6308F706DF
:1018D800231704FE6F0080028357E4FE0327C4FD2C
:1018E800B307F70083C7070013850700EFF0CFE4BD
:1018F8008357E4FE938717002317F4FE0357E4FE8B
:101908009307F01FE3FAE7FC1305F00FEFF0CFE2BF
:101918001305F00FEFF04FE2EFF00FE69307050025
:101928002317F4FE8357E4FE13F7F70193075000DB
:101938006306F700930720006F00800093070000FC
:10194800138507008320C1020324810213010103C8
:1019580067800000130101FD232611022324810260
:1019680013040103232EA4FC232CB4FCB727008006
:1019780003C707D2930760006308F700832784FD35
:1019880093979700232CF4FCB70700F013850720E2
:10199800EFF0CFC89307050093F7E7FF938507009B
:1019A800B70700F013850720EFF08FC393061000E8
:1019B80013061000832584FD13058001EFF0CFF096
:1019C80093070500A307F4FE8347F4FE639C070012
:1019D8009305E00F0325C4FDEFF05FEC93070500C6
:1019E800A307F4FEEFF0CFE88347F4FE1385070062
:1019F8008320C102032481021301010367800000D0
:101A08006340050663C605061386050093050500B1
:101A18001305F0FF630C060293061000637AB60004
:101A28006358C0001316160093961600E36AB6FEB4
:101A38001305000063E6C500B385C5403365D500CE
:101A480093D6160013561600E39606FE678000002C
:101A580093820000EFF05FFB1385050067800200AA
:101A68003305A04063D80500B305B0406FF0DFF937
:101A7800B305B04093820000EFF01FF93305A04092
:101A8800678002009382000063CA0500634C05006A
:101A9800EFF09FF71385050067800200B305B0409B
:101AA800E35805FE3305A040EFF01FF63305B040BC
:041AB8006780020041
:101ABC002D2D2D2D2D2D2D2D2D2D2D2D2D2D2D2D4A
:101ACC002D2D2D2D2D2D2D2D2D2D2D2D2D2D2D2D3A
:101ADC002D2D2D2D2D2D2D2D2D2D2D2D2D2D2D2D2A
:101AEC002D2D2D2D2D2D2D2D2D2D2D2D2D2D2D2D1A
:101AFC00200D0A002D20536F6674436F72652044CD
:101B0C00656D6F20202020203A20524953435628DF
:101B1C00467265712E37304D487A2033326B422035
:101B2C0052414D2E2046756C6C2046656174757261
:101B3C006529202D200D0A002D20486172647761E3
:101B4C00726520506C6174666F726D203A2050483B
:101B5C003141393053424734383420202020206121
:101B6C006E50483141202020202020202020202091
:101B7C00202020202020202D200D0A002D20544430
:101B8C00205665722E20202020202020202020206E
:101B9C003A20544420352E362E3228373130333605
:101BAC002920202020202020202020202020202020
:101BBC0020202020202020202020202D200D0A0055
:101BCC002D204F532B4275696C642B4465627567ED
:101BDC00202020203A2057696E646F77732C204F99
:101BEC0070656E4F4344202B2052697363762D6EC3
:101BFC006F6E652D656D6265642E20202020202D72
:101C0C00200D0A002D2054657374204361736520E8
:101C1C0020202020202020203A204750494F2049C6
:101C2C006E746572727570742044656D6F2020201F
:101C3C002020202020202020202020202020202098
:101C4C002020202D200D0A007265616420746573BC
:101C5C00745F726567203D20307825780D0A00008E
:101C6C0048656C6C6F204D61696E210D0A00000097
:101C7C0048656C6C6F205469636B210D0A00000081
:101C8C00554E4B4E4F574E20494E542053524321E4
:101C9C00205352433D2030782578000048656C6C09
:101CAC006F20436C69636B210D0A0000522E492E84
:101CBC00502E21204D4341555345203D2030782551
:101CCC007800000030313233343536373839414200
:041CDC0043444546F2
:101CE0002D20416E6C6F67696320654D43552062FE
:101CF00075696C6474696D65205B31323A33383ACA
:101D00003138204F637420203820323032335D2048
:101D100072657620312E300D0A00000000000000B0
:040000058000000077
:00000001FF
