Archive member included to satisfy reference by file (symbol)

c:/users/zhang/desktop/work/fpga/futuredynasty/toolchain/softcore/gcc/bin/../lib/gcc/riscv-none-embed/8.2.0/rv32i/ilp32\libgcc.a(div.o)
                              Build/./BSP/StdPeriphLib/src/anl_printf.o (__divsi3)

Allocating common symbols
Common symbol       size              file

SD_Type             0x1               Build/./BSP/StdPeriphLib/src/sd_spi.o

Discarded input sections

 .group         0x0000000000000000        0xc Build/src/main.o
 .group         0x0000000000000000        0xc Build/src/main.o
 .group         0x0000000000000000        0xc Build/src/main.o
 .group         0x0000000000000000        0xc Build/src/main.o
 .group         0x0000000000000000        0xc Build/src/main.o
 .group         0x0000000000000000        0xc Build/src/main.o
 .group         0x0000000000000000        0xc Build/src/main.o
 .group         0x0000000000000000        0xc Build/src/main.o
 .group         0x0000000000000000        0xc Build/src/main.o
 .group         0x0000000000000000        0xc Build/src/main.o
 .group         0x0000000000000000        0xc Build/src/main.o
 .group         0x0000000000000000        0xc Build/./BSP/StdPeriphLib/src/anl_printf.o
 .group         0x0000000000000000        0xc Build/./BSP/StdPeriphLib/src/anl_printf.o
 .group         0x0000000000000000        0xc Build/./BSP/StdPeriphLib/src/anl_printf.o
 .group         0x0000000000000000        0xc Build/./BSP/StdPeriphLib/src/anl_printf.o
 .group         0x0000000000000000        0xc Build/./BSP/StdPeriphLib/src/anl_printf.o
 .group         0x0000000000000000        0xc Build/./BSP/StdPeriphLib/src/anl_printf.o
 .group         0x0000000000000000        0xc Build/./BSP/StdPeriphLib/src/anl_printf.o
Memory Configuration

Name             Origin             Length             Attributes
RAM              0x0000000080000000 0x0000000000008000 xrw
*default*        0x0000000000000000 0xffffffffffffffff

Linker script and memory map

LOAD Build/src/main.o
LOAD Build/./BSP/StdPeriphLib/src/anl_printf.o
LOAD Build/./BSP/StdPeriphLib/src/sd_spi.o
LOAD Build/./BSP/Core/crt.o
LOAD c:/users/zhang/desktop/work/fpga/futuredynasty/toolchain/softcore/gcc/bin/../lib/gcc/riscv-none-embed/8.2.0/rv32i/ilp32\libgcc.a
                0x0000000000000800                _stack_size = DEFINED (_stack_size)?_stack_size:0x800
                0x0000000000000000                _heap_size = DEFINED (_heap_size)?_heap_size:0x0

._vector        0x0000000080000000      0x158
 *crt.o(.start_jump)
 .start_jump    0x0000000080000000       0x10 Build/./BSP/Core/crt.o
                0x0000000080000000                crtStart
 *crt.o(.text)
 *fill*         0x0000000080000010       0x10 
 .text          0x0000000080000020      0x138 Build/./BSP/Core/crt.o
                0x0000000080000020                trap_entry

.memory         0x0000000080000158     0x1964
 *(.text)
 .text          0x0000000080000158      0x5d4 Build/src/main.o
                0x00000000800003f4                irqCallback
                0x00000000800004c0                Delay
                0x0000000080000504                main
                0x000000008000062c                TimerISP
                0x0000000080000660                SoftISP
                0x000000008000067c                ExternalISP
                0x00000000800006cc                GpioISP
                0x0000000080000704                ExceptionHandler
 .text          0x000000008000072c      0x68c Build/./BSP/StdPeriphLib/src/anl_printf.o
                0x0000000080000944                anl_putchar
                0x0000000080000bb4                anl_printf
                0x0000000080000d58                anl_puts
 .text          0x0000000080000db8      0xc50 Build/./BSP/StdPeriphLib/src/sd_spi.o
                0x0000000080000f40                SD_SPI_WriteByte
                0x0000000080000f80                SD_SPI_ReadByte
                0x0000000080000fc4                SD_Select
                0x0000000080001078                SD_DisSelect
                0x00000000800010d0                SD_SendCmd
                0x00000000800011e4                Sdcard_init
                0x0000000080001670                SD_GetResponse
                0x00000000800016f8                SdRecvData
                0x00000000800017f8                SDReadSector
                0x00000000800018a4                SD_SendBlock
                0x000000008000195c                SDWriteSector
 .text          0x0000000080001a08       0xb4 c:/users/zhang/desktop/work/fpga/futuredynasty/toolchain/softcore/gcc/bin/../lib/gcc/riscv-none-embed/8.2.0/rv32i/ilp32\libgcc.a(div.o)
                0x0000000080001a08                __divsi3
                0x0000000080001a10                __udivsi3
                0x0000000080001a58                __umodsi3
                0x0000000080001a8c                __modsi3
                0x0000000080001abc                end = .

.rodata         0x0000000080001abc      0x224
 *(.rdata)
 *(.rodata .rodata.*)
 .rodata        0x0000000080001abc      0x212 Build/src/main.o
 *fill*         0x0000000080001cce        0x2 
 .rodata        0x0000000080001cd0       0x10 Build/./BSP/StdPeriphLib/src/anl_printf.o
 *(.gnu.linkonce.r.*)

.rela.dyn       0x0000000080001ce0        0x0
 .rela.text     0x0000000080001ce0        0x0 Build/src/main.o

.ctors          0x0000000080001ce0        0x0
                0x0000000080001ce0                . = ALIGN (0x4)
                0x0000000080001ce0                _ctors_start = .
 *(.init_array*)
 *(SORT_BY_NAME(.ctors.*))
 *(.ctors)
                0x0000000080001ce0                . = ALIGN (0x4)
                0x0000000080001ce0                _ctors_end = .
                [!provide]                        PROVIDE (END_OF_SW_IMAGE = .)

.data           0x0000000080001ce0       0x40
 *(.data .data.*)
 .data          0x0000000080001ce0       0x3a Build/src/main.o
 .data          0x0000000080001d1a        0x0 Build/./BSP/StdPeriphLib/src/anl_printf.o
 .data          0x0000000080001d1a        0x0 Build/./BSP/StdPeriphLib/src/sd_spi.o
 .data          0x0000000080001d1a        0x0 Build/./BSP/Core/crt.o
 .data          0x0000000080001d1a        0x0 c:/users/zhang/desktop/work/fpga/futuredynasty/toolchain/softcore/gcc/bin/../lib/gcc/riscv-none-embed/8.2.0/rv32i/ilp32\libgcc.a(div.o)
 *(.gnu.linkonce.d.*)
                0x0000000080001d20                . = ALIGN (0x8)
 *fill*         0x0000000080001d1a        0x6 
                0x0000000080002520                PROVIDE (__global_pointer$ = (. + 0x800))
 *(.sdata .sdata.*)
 *(.gnu.linkonce.s.*)
                0x0000000080001d20                . = ALIGN (0x8)
 *(.srodata.cst16)
 *(.srodata.cst8)
 *(.srodata.cst4)
 *(.srodata.cst2)
 *(.srodata .srodata.*)

.bss            0x0000000080001d20        0x4
                0x0000000080001d20                . = ALIGN (0x4)
                0x0000000080001d20                _bss_start = .
 *(.sbss*)
 *(.gnu.linkonce.sb.*)
 *(.bss .bss.*)
 .bss           0x0000000080001d20        0x0 Build/src/main.o
 .bss           0x0000000080001d20        0x0 Build/./BSP/StdPeriphLib/src/anl_printf.o
 .bss           0x0000000080001d20        0x0 Build/./BSP/StdPeriphLib/src/sd_spi.o
 .bss           0x0000000080001d20        0x0 Build/./BSP/Core/crt.o
 .bss           0x0000000080001d20        0x0 c:/users/zhang/desktop/work/fpga/futuredynasty/toolchain/softcore/gcc/bin/../lib/gcc/riscv-none-embed/8.2.0/rv32i/ilp32\libgcc.a(div.o)
 *(.gnu.linkonce.b.*)
 *(COMMON)
 COMMON         0x0000000080001d20        0x1 Build/./BSP/StdPeriphLib/src/sd_spi.o
                0x0000000080001d20                SD_Type
                0x0000000080001d24                . = ALIGN (0x4)
 *fill*         0x0000000080001d21        0x3 
                0x0000000080001d24                _bss_end = .

.noinit         0x0000000080001d24        0x0
                0x0000000080001d24                . = ALIGN (0x4)
 *(.noinit .noinit.*)
                0x0000000080001d24                . = ALIGN (0x4)

._user_heap     0x0000000080001d24        0x4
                0x0000000080001d28                . = ALIGN (0x8)
 *fill*         0x0000000080001d24        0x4 
                [!provide]                        PROVIDE (end = .)
                [!provide]                        PROVIDE (_end = .)
                [!provide]                        PROVIDE (_heap_start = .)
                0x0000000080001d28                . = (. + _heap_size)
                0x0000000080001d28                . = ALIGN (0x8)
                [!provide]                        PROVIDE (_heap_end = .)

._stack         0x0000000080001d28      0x808
                0x0000000080001d30                . = ALIGN (0x10)
 *fill*         0x0000000080001d28        0x8 
                [!provide]                        PROVIDE (_stack_end = .)
                0x0000000080002530                . = (. + _stack_size)
 *fill*         0x0000000080001d30      0x800 
                0x0000000080002530                . = ALIGN (0x10)
                0x0000000080002530                PROVIDE (_stack_start = .)
OUTPUT(Build/test_mcu.elf elf32-littleriscv)

.debug_info     0x0000000000000000      0xed2
 .debug_info    0x0000000000000000      0x4c6 Build/src/main.o
 .debug_info    0x00000000000004c6      0x477 Build/./BSP/StdPeriphLib/src/anl_printf.o
 .debug_info    0x000000000000093d      0x573 Build/./BSP/StdPeriphLib/src/sd_spi.o
 .debug_info    0x0000000000000eb0       0x22 Build/./BSP/Core/crt.o

.debug_abbrev   0x0000000000000000      0x5a4
 .debug_abbrev  0x0000000000000000      0x20a Build/src/main.o
 .debug_abbrev  0x000000000000020a      0x186 Build/./BSP/StdPeriphLib/src/anl_printf.o
 .debug_abbrev  0x0000000000000390      0x202 Build/./BSP/StdPeriphLib/src/sd_spi.o
 .debug_abbrev  0x0000000000000592       0x12 Build/./BSP/Core/crt.o

.debug_aranges  0x0000000000000000       0x88
 .debug_aranges
                0x0000000000000000       0x20 Build/src/main.o
 .debug_aranges
                0x0000000000000020       0x20 Build/./BSP/StdPeriphLib/src/anl_printf.o
 .debug_aranges
                0x0000000000000040       0x20 Build/./BSP/StdPeriphLib/src/sd_spi.o
 .debug_aranges
                0x0000000000000060       0x28 Build/./BSP/Core/crt.o

.debug_macro    0x0000000000000000      0xe74
 .debug_macro   0x0000000000000000       0xb9 Build/src/main.o
 .debug_macro   0x00000000000000b9      0x736 Build/src/main.o
 .debug_macro   0x00000000000007ef       0x28 Build/src/main.o
 .debug_macro   0x0000000000000817       0x22 Build/src/main.o
 .debug_macro   0x0000000000000839       0x8e Build/src/main.o
 .debug_macro   0x00000000000008c7       0x51 Build/src/main.o
 .debug_macro   0x0000000000000918       0xef Build/src/main.o
 .debug_macro   0x0000000000000a07       0x6a Build/src/main.o
 .debug_macro   0x0000000000000a71      0x1df Build/src/main.o
 .debug_macro   0x0000000000000c50       0x10 Build/src/main.o
 .debug_macro   0x0000000000000c60       0x16 Build/src/main.o
 .debug_macro   0x0000000000000c76       0x16 Build/src/main.o
 .debug_macro   0x0000000000000c8c       0x7e Build/./BSP/StdPeriphLib/src/anl_printf.o
 .debug_macro   0x0000000000000d0a       0x58 Build/./BSP/StdPeriphLib/src/anl_printf.o
 .debug_macro   0x0000000000000d62       0x84 Build/./BSP/StdPeriphLib/src/sd_spi.o
 .debug_macro   0x0000000000000de6       0x8e Build/./BSP/StdPeriphLib/src/sd_spi.o

.debug_line     0x0000000000000000     0x19dd
 .debug_line    0x0000000000000000      0x6bd Build/src/main.o
 .debug_line    0x00000000000006bd      0x747 Build/./BSP/StdPeriphLib/src/anl_printf.o
 .debug_line    0x0000000000000e04      0xa00 Build/./BSP/StdPeriphLib/src/sd_spi.o
 .debug_line    0x0000000000001804      0x1d9 Build/./BSP/Core/crt.o

.debug_str      0x0000000000000000     0x3adc
 .debug_str     0x0000000000000000     0x3623 Build/src/main.o
                                       0x379d (size before relaxing)
 .debug_str     0x0000000000003623      0x196 Build/./BSP/StdPeriphLib/src/anl_printf.o
                                       0x36e7 (size before relaxing)
 .debug_str     0x00000000000037b9      0x308 Build/./BSP/StdPeriphLib/src/sd_spi.o
                                       0x36fe (size before relaxing)
 .debug_str     0x0000000000003ac1       0x1b Build/./BSP/Core/crt.o
                                         0x5e (size before relaxing)

.comment        0x0000000000000000       0x39
 .comment       0x0000000000000000       0x39 Build/src/main.o
                                         0x3a (size before relaxing)
 .comment       0x0000000000000039       0x3a Build/./BSP/StdPeriphLib/src/anl_printf.o
 .comment       0x0000000000000039       0x3a Build/./BSP/StdPeriphLib/src/sd_spi.o

.debug_frame    0x0000000000000000      0x64c
 .debug_frame   0x0000000000000000      0x244 Build/src/main.o
 .debug_frame   0x0000000000000244      0x19c Build/./BSP/StdPeriphLib/src/anl_printf.o
 .debug_frame   0x00000000000003e0      0x26c Build/./BSP/StdPeriphLib/src/sd_spi.o

.debug_ranges   0x0000000000000000       0x20
 .debug_ranges  0x0000000000000000       0x20 Build/./BSP/Core/crt.o
